{
  "_format": "hh-sol-artifact-1",
  "contractName": "Ryu369NFT",
  "sourceName": "contracts/Ryu369NFT.sol",
  "abi": [
    {
      "inputs": [],
      "stateMutability": "nonpayable",
      "type": "constructor"
    },
    {
      "inputs": [
        {
          "internalType": "address",
          "name": "sender",
          "type": "address"
        },
        {
          "internalType": "uint256",
          "name": "tokenId",
          "type": "uint256"
        },
        {
          "internalType": "address",
          "name": "owner",
          "type": "address"
        }
      ],
      "name": "ERC721IncorrectOwner",
      "type": "error"
    },
    {
      "inputs": [
        {
          "internalType": "address",
          "name": "operator",
          "type": "address"
        },
        {
          "internalType": "uint256",
          "name": "tokenId",
          "type": "uint256"
        }
      ],
      "name": "ERC721InsufficientApproval",
      "type": "error"
    },
    {
      "inputs": [
        {
          "internalType": "address",
          "name": "approver",
          "type": "address"
        }
      ],
      "name": "ERC721InvalidApprover",
      "type": "error"
    },
    {
      "inputs": [
        {
          "internalType": "address",
          "name": "operator",
          "type": "address"
        }
      ],
      "name": "ERC721InvalidOperator",
      "type": "error"
    },
    {
      "inputs": [
        {
          "internalType": "address",
          "name": "owner",
          "type": "address"
        }
      ],
      "name": "ERC721InvalidOwner",
      "type": "error"
    },
    {
      "inputs": [
        {
          "internalType": "address",
          "name": "receiver",
          "type": "address"
        }
      ],
      "name": "ERC721InvalidReceiver",
      "type": "error"
    },
    {
      "inputs": [
        {
          "internalType": "address",
          "name": "sender",
          "type": "address"
        }
      ],
      "name": "ERC721InvalidSender",
      "type": "error"
    },
    {
      "inputs": [
        {
          "internalType": "uint256",
          "name": "tokenId",
          "type": "uint256"
        }
      ],
      "name": "ERC721NonexistentToken",
      "type": "error"
    },
    {
      "inputs": [
        {
          "internalType": "address",
          "name": "owner",
          "type": "address"
        }
      ],
      "name": "OwnableInvalidOwner",
      "type": "error"
    },
    {
      "inputs": [
        {
          "internalType": "address",
          "name": "account",
          "type": "address"
        }
      ],
      "name": "OwnableUnauthorizedAccount",
      "type": "error"
    },
    {
      "anonymous": false,
      "inputs": [
        {
          "indexed": true,
          "internalType": "address",
          "name": "owner",
          "type": "address"
        },
        {
          "indexed": true,
          "internalType": "address",
          "name": "approved",
          "type": "address"
        },
        {
          "indexed": true,
          "internalType": "uint256",
          "name": "tokenId",
          "type": "uint256"
        }
      ],
      "name": "Approval",
      "type": "event"
    },
    {
      "anonymous": false,
      "inputs": [
        {
          "indexed": true,
          "internalType": "address",
          "name": "owner",
          "type": "address"
        },
        {
          "indexed": true,
          "internalType": "address",
          "name": "operator",
          "type": "address"
        },
        {
          "indexed": false,
          "internalType": "bool",
          "name": "approved",
          "type": "bool"
        }
      ],
      "name": "ApprovalForAll",
      "type": "event"
    },
    {
      "anonymous": false,
      "inputs": [
        {
          "indexed": true,
          "internalType": "address",
          "name": "previousOwner",
          "type": "address"
        },
        {
          "indexed": true,
          "internalType": "address",
          "name": "newOwner",
          "type": "address"
        }
      ],
      "name": "OwnershipTransferred",
      "type": "event"
    },
    {
      "anonymous": false,
      "inputs": [
        {
          "indexed": true,
          "internalType": "address",
          "name": "from",
          "type": "address"
        },
        {
          "indexed": true,
          "internalType": "address",
          "name": "to",
          "type": "address"
        },
        {
          "indexed": true,
          "internalType": "uint256",
          "name": "tokenId",
          "type": "uint256"
        }
      ],
      "name": "Transfer",
      "type": "event"
    },
    {
      "inputs": [
        {
          "internalType": "address",
          "name": "to",
          "type": "address"
        },
        {
          "internalType": "uint256",
          "name": "tokenId",
          "type": "uint256"
        }
      ],
      "name": "approve",
      "outputs": [],
      "stateMutability": "nonpayable",
      "type": "function"
    },
    {
      "inputs": [
        {
          "internalType": "address",
          "name": "owner",
          "type": "address"
        }
      ],
      "name": "balanceOf",
      "outputs": [
        {
          "internalType": "uint256",
          "name": "",
          "type": "uint256"
        }
      ],
      "stateMutability": "view",
      "type": "function"
    },
    {
      "inputs": [
        {
          "internalType": "uint256",
          "name": "tokenId",
          "type": "uint256"
        }
      ],
      "name": "getApproved",
      "outputs": [
        {
          "internalType": "address",
          "name": "",
          "type": "address"
        }
      ],
      "stateMutability": "view",
      "type": "function"
    },
    {
      "inputs": [
        {
          "internalType": "address",
          "name": "owner",
          "type": "address"
        },
        {
          "internalType": "address",
          "name": "operator",
          "type": "address"
        }
      ],
      "name": "isApprovedForAll",
      "outputs": [
        {
          "internalType": "bool",
          "name": "",
          "type": "bool"
        }
      ],
      "stateMutability": "view",
      "type": "function"
    },
    {
      "inputs": [],
      "name": "name",
      "outputs": [
        {
          "internalType": "string",
          "name": "",
          "type": "string"
        }
      ],
      "stateMutability": "view",
      "type": "function"
    },
    {
      "inputs": [],
      "name": "owner",
      "outputs": [
        {
          "internalType": "address",
          "name": "",
          "type": "address"
        }
      ],
      "stateMutability": "view",
      "type": "function"
    },
    {
      "inputs": [
        {
          "internalType": "uint256",
          "name": "tokenId",
          "type": "uint256"
        }
      ],
      "name": "ownerOf",
      "outputs": [
        {
          "internalType": "address",
          "name": "",
          "type": "address"
        }
      ],
      "stateMutability": "view",
      "type": "function"
    },
    {
      "inputs": [],
      "name": "renounceOwnership",
      "outputs": [],
      "stateMutability": "nonpayable",
      "type": "function"
    },
    {
      "inputs": [
        {
          "internalType": "address",
          "name": "to",
          "type": "address"
        }
      ],
      "name": "safeMint",
      "outputs": [],
      "stateMutability": "nonpayable",
      "type": "function"
    },
    {
      "inputs": [
        {
          "internalType": "address",
          "name": "from",
          "type": "address"
        },
        {
          "internalType": "address",
          "name": "to",
          "type": "address"
        },
        {
          "internalType": "uint256",
          "name": "tokenId",
          "type": "uint256"
        }
      ],
      "name": "safeTransferFrom",
      "outputs": [],
      "stateMutability": "nonpayable",
      "type": "function"
    },
    {
      "inputs": [
        {
          "internalType": "address",
          "name": "from",
          "type": "address"
        },
        {
          "internalType": "address",
          "name": "to",
          "type": "address"
        },
        {
          "internalType": "uint256",
          "name": "tokenId",
          "type": "uint256"
        },
        {
          "internalType": "bytes",
          "name": "data",
          "type": "bytes"
        }
      ],
      "name": "safeTransferFrom",
      "outputs": [],
      "stateMutability": "nonpayable",
      "type": "function"
    },
    {
      "inputs": [
        {
          "internalType": "address",
          "name": "operator",
          "type": "address"
        },
        {
          "internalType": "bool",
          "name": "approved",
          "type": "bool"
        }
      ],
      "name": "setApprovalForAll",
      "outputs": [],
      "stateMutability": "nonpayable",
      "type": "function"
    },
    {
      "inputs": [
        {
          "internalType": "bytes4",
          "name": "interfaceId",
          "type": "bytes4"
        }
      ],
      "name": "supportsInterface",
      "outputs": [
        {
          "internalType": "bool",
          "name": "",
          "type": "bool"
        }
      ],
      "stateMutability": "view",
      "type": "function"
    },
    {
      "inputs": [],
      "name": "symbol",
      "outputs": [
        {
          "internalType": "string",
          "name": "",
          "type": "string"
        }
      ],
      "stateMutability": "view",
      "type": "function"
    },
    {
      "inputs": [
        {
          "internalType": "uint256",
          "name": "tokenId",
          "type": "uint256"
        }
      ],
      "name": "tokenURI",
      "outputs": [
        {
          "internalType": "string",
          "name": "",
          "type": "string"
        }
      ],
      "stateMutability": "view",
      "type": "function"
    },
    {
      "inputs": [
        {
          "internalType": "address",
          "name": "from",
          "type": "address"
        },
        {
          "internalType": "address",
          "name": "to",
          "type": "address"
        },
        {
          "internalType": "uint256",
          "name": "tokenId",
          "type": "uint256"
        }
      ],
      "name": "transferFrom",
      "outputs": [],
      "stateMutability": "nonpayable",
      "type": "function"
    },
    {
      "inputs": [
        {
          "internalType": "address",
          "name": "newOwner",
          "type": "address"
        }
      ],
      "name": "transferOwnership",
      "outputs": [],
      "stateMutability": "nonpayable",
      "type": "function"
    }
  ],
  "bytecode": "0x60806040523480156200001157600080fd5b50336040518060400160405280600981526020017f5279753336394e465400000000000000000000000000000000000000000000008152506040518060400160405280600681526020017f5259554e46540000000000000000000000000000000000000000000000000000815250816000908162000090919062000472565b508060019081620000a2919062000472565b505050600073ffffffffffffffffffffffffffffffffffffffff168173ffffffffffffffffffffffffffffffffffffffff16036200011a5760006040517f1e4fbdf70000000000000000000000000000000000000000000000000000000081526004016200011191906200059e565b60405180910390fd5b6200012b816200013260201b60201c565b50620005bb565b6000600660009054906101000a900473ffffffffffffffffffffffffffffffffffffffff16905081600660006101000a81548173ffffffffffffffffffffffffffffffffffffffff021916908373ffffffffffffffffffffffffffffffffffffffff1602179055508173ffffffffffffffffffffffffffffffffffffffff168173ffffffffffffffffffffffffffffffffffffffff167f8be0079c531659141344cd1fd0a4f28419497f9722a3daafe3b4186f6b6457e060405160405180910390a35050565b600081519050919050565b7f4e487b7100000000000000000000000000000000000000000000000000000000600052604160045260246000fd5b7f4e487b7100000000000000000000000000000000000000000000000000000000600052602260045260246000fd5b600060028204905060018216806200027a57607f821691505b60208210810362000290576200028f62000232565b5b50919050565b60008190508160005260206000209050919050565b60006020601f8301049050919050565b600082821b905092915050565b600060088302620002fa7fffffffffffffffffffffffffffffffffffffffffffffffffffffffffffffffff82620002bb565b620003068683620002bb565b95508019841693508086168417925050509392505050565b6000819050919050565b6000819050919050565b6000620003536200034d62000347846200031e565b62000328565b6200031e565b9050919050565b6000819050919050565b6200036f8362000332565b620003876200037e826200035a565b848454620002c8565b825550505050565b600090565b6200039e6200038f565b620003ab81848462000364565b505050565b5b81811015620003d357620003c760008262000394565b600181019050620003b1565b5050565b601f8211156200042257620003ec8162000296565b620003f784620002ab565b8101602085101562000407578190505b6200041f6200041685620002ab565b830182620003b0565b50505b505050565b600082821c905092915050565b6000620004476000198460080262000427565b1980831691505092915050565b600062000462838362000434565b9150826002028217905092915050565b6200047d82620001f8565b67ffffffffffffffff81111562000499576200049862000203565b5b620004a5825462000261565b620004b2828285620003d7565b600060209050601f831160018114620004ea5760008415620004d5578287015190505b620004e1858262000454565b86555062000551565b601f198416620004fa8662000296565b60005b828110156200052457848901518255600182019150602085019450602081019050620004fd565b8683101562000544578489015162000540601f89168262000434565b8355505b6001600288020188555050505b505050505050565b600073ffffffffffffffffffffffffffffffffffffffff82169050919050565b6000620005868262000559565b9050919050565b620005988162000579565b82525050565b6000602082019050620005b560008301846200058d565b92915050565b61211280620005cb6000396000f3fe608060405234801561001057600080fd5b506004361061010b5760003560e01c806370a08231116100a2578063a22cb46511610071578063a22cb465146102a4578063b88d4fde146102c0578063c87b56dd146102dc578063e985e9c51461030c578063f2fde38b1461033c5761010b565b806370a082311461022e578063715018a61461025e5780638da5cb5b1461026857806395d89b41146102865761010b565b806323b872dd116100de57806323b872dd146101aa57806340d097c3146101c657806342842e0e146101e25780636352211e146101fe5761010b565b806301ffc9a71461011057806306fdde0314610140578063081812fc1461015e578063095ea7b31461018e575b600080fd5b61012a600480360381019061012591906118e5565b610358565b604051610137919061192d565b60405180910390f35b61014861043a565b60405161015591906119d8565b60405180910390f35b61017860048036038101906101739190611a30565b6104cc565b6040516101859190611a9e565b60405180910390f35b6101a860048036038101906101a39190611ae5565b6104e8565b005b6101c460048036038101906101bf9190611b25565b6104fe565b005b6101e060048036038101906101db9190611b78565b610600565b005b6101fc60048036038101906101f79190611b25565b610635565b005b61021860048036038101906102139190611a30565b610655565b6040516102259190611a9e565b60405180910390f35b61024860048036038101906102439190611b78565b610667565b6040516102559190611bb4565b60405180910390f35b610266610721565b005b610270610735565b60405161027d9190611a9e565b60405180910390f35b61028e61075f565b60405161029b91906119d8565b60405180910390f35b6102be60048036038101906102b99190611bfb565b6107f1565b005b6102da60048036038101906102d59190611d70565b610807565b005b6102f660048036038101906102f19190611a30565b61082c565b60405161030391906119d8565b60405180910390f35b61032660048036038101906103219190611df3565b610895565b604051610333919061192d565b60405180910390f35b61035660048036038101906103519190611b78565b610929565b005b60007f80ac58cd000000000000000000000000000000000000000000000000000000007bffffffffffffffffffffffffffffffffffffffffffffffffffffffff1916827bffffffffffffffffffffffffffffffffffffffffffffffffffffffff1916148061042357507f5b5e139f000000000000000000000000000000000000000000000000000000007bffffffffffffffffffffffffffffffffffffffffffffffffffffffff1916827bffffffffffffffffffffffffffffffffffffffffffffffffffffffff1916145b806104335750610432826109af565b5b9050919050565b60606000805461044990611e62565b80601f016020809104026020016040519081016040528092919081815260200182805461047590611e62565b80156104c25780601f10610497576101008083540402835291602001916104c2565b820191906000526020600020905b8154815290600101906020018083116104a557829003601f168201915b5050505050905090565b60006104d782610a19565b506104e182610aa1565b9050919050565b6104fa82826104f5610ade565b610ae6565b5050565b600073ffffffffffffffffffffffffffffffffffffffff168273ffffffffffffffffffffffffffffffffffffffff16036105705760006040517f64a0ae920000000000000000000000000000000000000000000000000000000081526004016105679190611a9e565b60405180910390fd5b6000610584838361057f610ade565b610af8565b90508373ffffffffffffffffffffffffffffffffffffffff168173ffffffffffffffffffffffffffffffffffffffff16146105fa578382826040517f64283d7b0000000000000000000000000000000000000000000000000000000081526004016105f193929190611e93565b60405180910390fd5b50505050565b610608610d12565b600060075490506007600081548092919061062290611ef9565b91905055506106318282610d99565b5050565b61065083838360405180602001604052806000815250610807565b505050565b600061066082610a19565b9050919050565b60008073ffffffffffffffffffffffffffffffffffffffff168273ffffffffffffffffffffffffffffffffffffffff16036106da5760006040517f89c62b640000000000000000000000000000000000000000000000000000000081526004016106d19190611a9e565b60405180910390fd5b600360008373ffffffffffffffffffffffffffffffffffffffff1673ffffffffffffffffffffffffffffffffffffffff168152602001908152602001600020549050919050565b610729610d12565b6107336000610db7565b565b6000600660009054906101000a900473ffffffffffffffffffffffffffffffffffffffff16905090565b60606001805461076e90611e62565b80601f016020809104026020016040519081016040528092919081815260200182805461079a90611e62565b80156107e75780601f106107bc576101008083540402835291602001916107e7565b820191906000526020600020905b8154815290600101906020018083116107ca57829003601f168201915b5050505050905090565b6108036107fc610ade565b8383610e7d565b5050565b6108128484846104fe565b61082661081d610ade565b85858585610fec565b50505050565b606061083782610a19565b50600061084261119d565b90506000815111610862576040518060200160405280600081525061088d565b8061086c846111b4565b60405160200161087d929190611f7d565b6040516020818303038152906040525b915050919050565b6000600560008473ffffffffffffffffffffffffffffffffffffffff1673ffffffffffffffffffffffffffffffffffffffff16815260200190815260200160002060008373ffffffffffffffffffffffffffffffffffffffff1673ffffffffffffffffffffffffffffffffffffffff16815260200190815260200160002060009054906101000a900460ff16905092915050565b610931610d12565b600073ffffffffffffffffffffffffffffffffffffffff168173ffffffffffffffffffffffffffffffffffffffff16036109a35760006040517f1e4fbdf700000000000000000000000000000000000000000000000000000000815260040161099a9190611a9e565b60405180910390fd5b6109ac81610db7565b50565b60007f01ffc9a7000000000000000000000000000000000000000000000000000000007bffffffffffffffffffffffffffffffffffffffffffffffffffffffff1916827bffffffffffffffffffffffffffffffffffffffffffffffffffffffff1916149050919050565b600080610a2583611282565b9050600073ffffffffffffffffffffffffffffffffffffffff168173ffffffffffffffffffffffffffffffffffffffff1603610a9857826040517f7e273289000000000000000000000000000000000000000000000000000000008152600401610a8f9190611bb4565b60405180910390fd5b80915050919050565b60006004600083815260200190815260200160002060009054906101000a900473ffffffffffffffffffffffffffffffffffffffff169050919050565b600033905090565b610af383838360016112bf565b505050565b600080610b0484611282565b9050600073ffffffffffffffffffffffffffffffffffffffff168373ffffffffffffffffffffffffffffffffffffffff1614610b4657610b45818486611484565b5b600073ffffffffffffffffffffffffffffffffffffffff168173ffffffffffffffffffffffffffffffffffffffff1614610bd757610b886000856000806112bf565b6001600360008373ffffffffffffffffffffffffffffffffffffffff1673ffffffffffffffffffffffffffffffffffffffff168152602001908152602001600020600082825403925050819055505b600073ffffffffffffffffffffffffffffffffffffffff168573ffffffffffffffffffffffffffffffffffffffff1614610c5a576001600360008773ffffffffffffffffffffffffffffffffffffffff1673ffffffffffffffffffffffffffffffffffffffff168152602001908152602001600020600082825401925050819055505b846002600086815260200190815260200160002060006101000a81548173ffffffffffffffffffffffffffffffffffffffff021916908373ffffffffffffffffffffffffffffffffffffffff160217905550838573ffffffffffffffffffffffffffffffffffffffff168273ffffffffffffffffffffffffffffffffffffffff167fddf252ad1be2c89b69c2b068fc378daa952ba7f163c4a11628f55a4df523b3ef60405160405180910390a4809150509392505050565b610d1a610ade565b73ffffffffffffffffffffffffffffffffffffffff16610d38610735565b73ffffffffffffffffffffffffffffffffffffffff1614610d9757610d5b610ade565b6040517f118cdaa7000000000000000000000000000000000000000000000000000000008152600401610d8e9190611a9e565b60405180910390fd5b565b610db3828260405180602001604052806000815250611548565b5050565b6000600660009054906101000a900473ffffffffffffffffffffffffffffffffffffffff16905081600660006101000a81548173ffffffffffffffffffffffffffffffffffffffff021916908373ffffffffffffffffffffffffffffffffffffffff1602179055508173ffffffffffffffffffffffffffffffffffffffff168173ffffffffffffffffffffffffffffffffffffffff167f8be0079c531659141344cd1fd0a4f28419497f9722a3daafe3b4186f6b6457e060405160405180910390a35050565b600073ffffffffffffffffffffffffffffffffffffffff168273ffffffffffffffffffffffffffffffffffffffff1603610eee57816040517f5b08ba18000000000000000000000000000000000000000000000000000000008152600401610ee59190611a9e565b60405180910390fd5b80600560008573ffffffffffffffffffffffffffffffffffffffff1673ffffffffffffffffffffffffffffffffffffffff16815260200190815260200160002060008473ffffffffffffffffffffffffffffffffffffffff1673ffffffffffffffffffffffffffffffffffffffff16815260200190815260200160002060006101000a81548160ff0219169083151502179055508173ffffffffffffffffffffffffffffffffffffffff168373ffffffffffffffffffffffffffffffffffffffff167f17307eab39ab6107e8899845ad3d59bd9653f200f220920489ca2b5937696c3183604051610fdf919061192d565b60405180910390a3505050565b60008373ffffffffffffffffffffffffffffffffffffffff163b1115611196578273ffffffffffffffffffffffffffffffffffffffff1663150b7a02868685856040518563ffffffff1660e01b815260040161104b9493929190611ff6565b6020604051808303816000875af192505050801561108757506040513d601f19601f820116820180604052508101906110849190612057565b60015b61110b573d80600081146110b7576040519150601f19603f3d011682016040523d82523d6000602084013e6110bc565b606091505b50600081510361110357836040517f64a0ae920000000000000000000000000000000000000000000000000000000081526004016110fa9190611a9e565b60405180910390fd5b805160208201fd5b63150b7a0260e01b7bffffffffffffffffffffffffffffffffffffffffffffffffffffffff1916817bffffffffffffffffffffffffffffffffffffffffffffffffffffffff19161461119457836040517f64a0ae9200000000000000000000000000000000000000000000000000000000815260040161118b9190611a9e565b60405180910390fd5b505b5050505050565b606060405180602001604052806000815250905090565b6060600060016111c38461156c565b01905060008167ffffffffffffffff8111156111e2576111e1611c45565b5b6040519080825280601f01601f1916602001820160405280156112145781602001600182028036833780820191505090505b509050600082602083010190505b600115611277578080600190039150507f3031323334353637383961626364656600000000000000000000000000000000600a86061a8153600a858161126b5761126a612084565b5b04945060008503611222575b819350505050919050565b60006002600083815260200190815260200160002060009054906101000a900473ffffffffffffffffffffffffffffffffffffffff169050919050565b80806112f85750600073ffffffffffffffffffffffffffffffffffffffff168273ffffffffffffffffffffffffffffffffffffffff1614155b1561142c57600061130884610a19565b9050600073ffffffffffffffffffffffffffffffffffffffff168373ffffffffffffffffffffffffffffffffffffffff161415801561137357508273ffffffffffffffffffffffffffffffffffffffff168173ffffffffffffffffffffffffffffffffffffffff1614155b801561138657506113848184610895565b155b156113c857826040517fa9fbf51f0000000000000000000000000000000000000000000000000000000081526004016113bf9190611a9e565b60405180910390fd5b811561142a57838573ffffffffffffffffffffffffffffffffffffffff168273ffffffffffffffffffffffffffffffffffffffff167f8c5be1e5ebec7d5bd14f71427d1e84f3dd0314c0f7b2291e5b200ac8c7c3b92560405160405180910390a45b505b836004600085815260200190815260200160002060006101000a81548173ffffffffffffffffffffffffffffffffffffffff021916908373ffffffffffffffffffffffffffffffffffffffff16021790555050505050565b61148f8383836116bf565b61154357600073ffffffffffffffffffffffffffffffffffffffff168373ffffffffffffffffffffffffffffffffffffffff160361150457806040517f7e2732890000000000000000000000000000000000000000000000000000000081526004016114fb9190611bb4565b60405180910390fd5b81816040517f177e802f00000000000000000000000000000000000000000000000000000000815260040161153a9291906120b3565b60405180910390fd5b505050565b6115528383611780565b61156761155d610ade565b6000858585610fec565b505050565b600080600090507a184f03e93ff9f4daa797ed6e38ed64bf6a1f01000000000000000083106115ca577a184f03e93ff9f4daa797ed6e38ed64bf6a1f01000000000000000083816115c0576115bf612084565b5b0492506040810190505b6d04ee2d6d415b85acef81000000008310611607576d04ee2d6d415b85acef810000000083816115fd576115fc612084565b5b0492506020810190505b662386f26fc10000831061163657662386f26fc10000838161162c5761162b612084565b5b0492506010810190505b6305f5e100831061165f576305f5e100838161165557611654612084565b5b0492506008810190505b612710831061168457612710838161167a57611679612084565b5b0492506004810190505b606483106116a7576064838161169d5761169c612084565b5b0492506002810190505b600a83106116b6576001810190505b80915050919050565b60008073ffffffffffffffffffffffffffffffffffffffff168373ffffffffffffffffffffffffffffffffffffffff161415801561177757508273ffffffffffffffffffffffffffffffffffffffff168473ffffffffffffffffffffffffffffffffffffffff16148061173857506117378484610895565b5b8061177657508273ffffffffffffffffffffffffffffffffffffffff1661175e83610aa1565b73ffffffffffffffffffffffffffffffffffffffff16145b5b90509392505050565b600073ffffffffffffffffffffffffffffffffffffffff168273ffffffffffffffffffffffffffffffffffffffff16036117f25760006040517f64a0ae920000000000000000000000000000000000000000000000000000000081526004016117e99190611a9e565b60405180910390fd5b600061180083836000610af8565b9050600073ffffffffffffffffffffffffffffffffffffffff168173ffffffffffffffffffffffffffffffffffffffff16146118745760006040517f73c6ac6e00000000000000000000000000000000000000000000000000000000815260040161186b9190611a9e565b60405180910390fd5b505050565b6000604051905090565b600080fd5b600080fd5b60007fffffffff0000000000000000000000000000000000000000000000000000000082169050919050565b6118c28161188d565b81146118cd57600080fd5b50565b6000813590506118df816118b9565b92915050565b6000602082840312156118fb576118fa611883565b5b6000611909848285016118d0565b91505092915050565b60008115159050919050565b61192781611912565b82525050565b6000602082019050611942600083018461191e565b92915050565b600081519050919050565b600082825260208201905092915050565b60005b83811015611982578082015181840152602081019050611967565b60008484015250505050565b6000601f19601f8301169050919050565b60006119aa82611948565b6119b48185611953565b93506119c4818560208601611964565b6119cd8161198e565b840191505092915050565b600060208201905081810360008301526119f2818461199f565b905092915050565b6000819050919050565b611a0d816119fa565b8114611a1857600080fd5b50565b600081359050611a2a81611a04565b92915050565b600060208284031215611a4657611a45611883565b5b6000611a5484828501611a1b565b91505092915050565b600073ffffffffffffffffffffffffffffffffffffffff82169050919050565b6000611a8882611a5d565b9050919050565b611a9881611a7d565b82525050565b6000602082019050611ab36000830184611a8f565b92915050565b611ac281611a7d565b8114611acd57600080fd5b50565b600081359050611adf81611ab9565b92915050565b60008060408385031215611afc57611afb611883565b5b6000611b0a85828601611ad0565b9250506020611b1b85828601611a1b565b9150509250929050565b600080600060608486031215611b3e57611b3d611883565b5b6000611b4c86828701611ad0565b9350506020611b5d86828701611ad0565b9250506040611b6e86828701611a1b565b9150509250925092565b600060208284031215611b8e57611b8d611883565b5b6000611b9c84828501611ad0565b91505092915050565b611bae816119fa565b82525050565b6000602082019050611bc96000830184611ba5565b92915050565b611bd881611912565b8114611be357600080fd5b50565b600081359050611bf581611bcf565b92915050565b60008060408385031215611c1257611c11611883565b5b6000611c2085828601611ad0565b9250506020611c3185828601611be6565b9150509250929050565b600080fd5b600080fd5b7f4e487b7100000000000000000000000000000000000000000000000000000000600052604160045260246000fd5b611c7d8261198e565b810181811067ffffffffffffffff82111715611c9c57611c9b611c45565b5b80604052505050565b6000611caf611879565b9050611cbb8282611c74565b919050565b600067ffffffffffffffff821115611cdb57611cda611c45565b5b611ce48261198e565b9050602081019050919050565b82818337600083830152505050565b6000611d13611d0e84611cc0565b611ca5565b905082815260208101848484011115611d2f57611d2e611c40565b5b611d3a848285611cf1565b509392505050565b600082601f830112611d5757611d56611c3b565b5b8135611d67848260208601611d00565b91505092915050565b60008060008060808587031215611d8a57611d89611883565b5b6000611d9887828801611ad0565b9450506020611da987828801611ad0565b9350506040611dba87828801611a1b565b925050606085013567ffffffffffffffff811115611ddb57611dda611888565b5b611de787828801611d42565b91505092959194509250565b60008060408385031215611e0a57611e09611883565b5b6000611e1885828601611ad0565b9250506020611e2985828601611ad0565b9150509250929050565b7f4e487b7100000000000000000000000000000000000000000000000000000000600052602260045260246000fd5b60006002820490506001821680611e7a57607f821691505b602082108103611e8d57611e8c611e33565b5b50919050565b6000606082019050611ea86000830186611a8f565b611eb56020830185611ba5565b611ec26040830184611a8f565b949350505050565b7f4e487b7100000000000000000000000000000000000000000000000000000000600052601160045260246000fd5b6000611f04826119fa565b91507fffffffffffffffffffffffffffffffffffffffffffffffffffffffffffffffff8203611f3657611f35611eca565b5b600182019050919050565b600081905092915050565b6000611f5782611948565b611f618185611f41565b9350611f71818560208601611964565b80840191505092915050565b6000611f898285611f4c565b9150611f958284611f4c565b91508190509392505050565b600081519050919050565b600082825260208201905092915050565b6000611fc882611fa1565b611fd28185611fac565b9350611fe2818560208601611964565b611feb8161198e565b840191505092915050565b600060808201905061200b6000830187611a8f565b6120186020830186611a8f565b6120256040830185611ba5565b81810360608301526120378184611fbd565b905095945050505050565b600081519050612051816118b9565b92915050565b60006020828403121561206d5761206c611883565b5b600061207b84828501612042565b91505092915050565b7f4e487b7100000000000000000000000000000000000000000000000000000000600052601260045260246000fd5b60006040820190506120c86000830185611a8f565b6120d56020830184611ba5565b939250505056fea264697066735822122033e7168f70eec4253e40820ed243d1715b1426f5e7041bb49d22e9c2080ed96d64736f6c63430008140033",
  "linkReferences": {},
  "deployedLinkReferences": {}
}